:020000040000fa
:080000000002040000000000f2
:020000040000fa
:100400006f9f2000007f2200000188000000000094
:100410000c000700400e2100010020001100070021
:10042000000020000000e000020032000000020096
:1004300000000000c80f0200000000000040da00c9
:100440000000fe004440a900000c20000000e00075
:100450000300320000002000a00188004440a800f2
:100460000000060091018800800078000000eb0089
:1004700015003700e280400032a0b4009101ba00bc
:10048000e280400032a0b4009102ba00e280400055
:1004900032a0b4000002eb00472bde00f507b200eb
:1004a000602ce10004003a000059eb008301e900f0
:1004b000fdff3e00040037006128e100010032002a
:1004c0000082eb00040007001101ba000200e00006
:1004d000e8ff3a00000006003159ba008301e90044
:1004e0000c0032002159ba008301e90008003200f3
:1004f0000400e00003003a00e280400032a0b400b3
:10050000f5ff370011d9ba008301e900faff3a007c
:100510008100e800e180400032a0b4000000060045
:020000040000fa
:020000040001f9
:0457f8005f7f0000cf
:020000040000fa
:020000040001f9
:0457fc00603f00000a
:020000040000fa
:100008000e1100000e1100000e1100000e1100006c
:100018000e1100000e1100000e1100000e1100005c
:100028000e1100000e1100000e1100000e1100004c
:100038000e1100000e1100000e1100000e1100003c
:020000040000fa
:020000040000fa
:1005200010830000dc820000b6820000148300000b
:1005300006000000ff09000001a1000001190000f1
:10054000012900004015000000260000ff00000007
:1005500075080000954000008100000019010000ae
:100560002940000091000000c000000026030000a8
:100570005500000053000000420000002000000071
:100580004800000049000000440000002000000076
:10059000420000006f0000006f00000074000000c7
:1005a0006c0000006f0000006100000064000000ab
:1005b0006500000072000000340300004d000000e0
:1005c0006900000063000000720000006f0000007e
:1005d0006300000068000000690000007000000077
:1005e00020000000540000006500000063000000cf
:1005f000680000006e0000006f0000006c0000004a
:100600006f0000006700000079000000200000007b
:10061000490000006e000000630000002e00000092
:100620000403000009040000090200002900000082
:100630000101000000c000003209000004000000b9
:10064000000200000300000000000000092100007b
:100650001101000000010000221d00000007000041
:1006600005810000034000000001000007050000b4
:100670000103000040000000010000001201000022
:10068000100100000000000000080000d804000075
:100690003c00000002000000010200000001000018
:020000040000fa
:1006a0009ec0a9000080eb007024880050248800c0
:1006b0008000eb00512588006125880031258800e5
:1006c000412588008644a900f00920008024880084
:1006d000602488008804a800008020004800de0014
:1006e000c0248800048020006011b8004208dd00aa
:1006f000040040000288be008100e800e48f500042
:10070000faff3a009424a8009624ef0094a4a900cc
:100710009424a900028d200012417800830020005b
:100720008040eb0007003700532488008000fd0064
:10073000c2e8b700c3e8b700c4e8b7008000fd0016
:10074000014178008ac4bf000038a300f6ff3a00d8
:1007500002007800d0e8b7001000200010458800a3
:10076000004588000000eb00a0468800b0468800e5
:1007700050468800c48b2000228b20008000eb00b4
:10078000758a2000538a2000011a78000119780028
:1007900001f07a0001f079000000e800e20f50005b
:1007a000f9ff3a0040802000e0458800d00020009a
:1007b00050258800808920001040880080c0b30048
:1007c00000e8b70040c8b30001e8b70001007800b6
:1007d000c7e8b70041468800000006008000eb0033
:1007e00051468800010178004007200021060700db
:1007f0008284a90000012000002488000000060077
:100800008284a800000120005024880010002000ed
:10081000504688000001eb008000eb0050072000ec
:1008200014063700a208e2001b003a001000200066
:1008300010458800014580000100e00016003a00e4
:1008400000458800b0c8bf00e24f500006003a00e3
:10085000e04580000148780081ccb300e04580008d
:100860001140980000000600e14f50000a003a00d5
:10087000aa28ef0081c0b300b0458000014878008d
:1008800081892000b04580001100980001c8b300a4
:10089000b04580001140980000000600aac4bf00c7
:1008a0000018a3000d003200c24580009240900065
:1008b00000c8b30080cf500007003a00e045800038
:1008c0009040900040c8b30080cf500002003a0032
:1008d0006840400010419800aa24a90000082000a8
:1008e0005024880000000600c04580009041780038
:1008f000318c2000914078008180fb00c4c8bf008b
:100900004800dd00810070000380fb00810f500073
:1009100001003600814178000380fb000080500018
:10092000c3e8b7004800de00c4e8b7000002eb00ef
:1009300006892000f50f20000f003700018c2000f1
:10094000914078008180fb00c1c8bf004800dd00f5
:10095000010070008280fb0061587b008500600010
:100960008000fd00c0e8b7008000fd004800de0008
:10097000c1e8b7000402e80004417800834f520048
:10098000eeff3900318c2000914078008180fb001f
:10099000c4c8bf004800dd00010070000f00320035
:1009a00081c0b300b0458000014878000189200073
:1009b000b045800011009800c045800010409000b4
:1009c00081ccb3000068a3000100320081c8b300ed
:1009d000b0458000114098000000060081c0b300bf
:1009e000b04580000148780081892000b045800032
:1009f0001100980041c8b300b04580001140980034
:100a0000518c2000914078008180fb00c6c8bf0057
:100a10004800dd000100700001003200000001000c
:100a2000c2e8a900d808e20001003a007dff0700f3
:100a300000000600008b200021c0b30090cf100002
:100a400001003a00a8ff3700b068ef00aa08e200f2
:100a50000a003a0081c0b300b04580000148780028
:100a600081892000b045800011009800c1c8b30002
:100a7000b04580001140980000000600aa28ef0051
:100a8000000006009146800083c0b300e78f50004d
:100a900009003e0081417800b1c8bf0002003a0061
:100aa00010c0b30003003700e14f500002003a00cd
:100ab00020c0b300b1e8b7000380fb000080500005
:100ac00090468800e04580000348780000892000b7
:100ad00070458800d008ab00020032000341780066
:100ae00012003700034178008041eb000600370018
:100af000704580007146800031587800704588004c
:100b0000714688000241e900834f5100f8ff3a0026
:100b10000000060070458000714680003158780062
:100b200070458800714688000241e9000204e00037
:100b3000f8ff3a0000000600881f7800e0458000ba
:100b4000104090004600de006104600040468000d6
:100b5000e80f500008003a009ac8bf000080fb0070
:100b6000b0248800000120009604e20001003a0051
:100b70004000200040468800008b200011c0b300d8
:100b800090cf100011003a0000892000e14580005c
:100b900090009800bbff0700108b200021c0b3001d
:100ba00090cf100002003a0041c8b30004003700a3
:100bb00081c8b3000804e00001003a0081ccb30012
:100bc000e0458000114098000c003700c248e20068
:100bd00009003d00518c2000914078008180fb008d
:100be000c6c8bf004800dd000100700001003200ef
:100bf00000000100c2e8a900b068ef004f047800cf
:100c000000000600818920009140780000c8b300f0
:100c100080cf500027003a0000ccb300d0e8b700e6
:100c20009bc8bf00e24f500008003200e34f500065
:100c300011003200e14f50001d003a00e03328005f
:100c40007046880020012000150037009ac8bf00b8
:100c50000080fb000000400061292800e08078004f
:100c60007146880021409000d2e8b70031409000e2
:100c7000d3e8b700000006009ac8bf00e24f50005a
:100c800009003e009ac8bf000080fb000000400041
:100c90000129280060807800704688001080fb00e1
:100ca0009046880000000600d068ef0000000600b3
:100cb000d068ef0000000600d0e8a8000000eb00bc
:100cc0006025880080007800048020006011b80052
:100cd0004208dd00040040000288be008100e800f8
:100ce000e48f5000faff3a009424a800ba68ef009d
:100cf0009424a90040802000e0458800c445880075
:100d0000b44588009ac8bf00c7e8b70002003a009f
:100d1000000120000500370012002000718c200027
:100d200010002000d3040700000220004046880085
:100d3000000006000040eb0090e8b70091e8b70023
:100d400098c8bf007f006000e10f50000b00320028
:100d5000e20f50000b0032000000e0001b003a00e0
:100d6000d0e8a8009008a80060468000e10f50007d
:100d700016003a009028a80014003700d0e8a80018
:100d800012003700d0e8a8009c48e20005003500ba
:100d90009cc8bf006f00600000004000218b200055
:100da000040037009cc8bf006f00600000004000d6
:100db000c18b200060807800104090000028a300c4
:100dc0000200320010c0b30090e8b700d0e8ab00da
:100dd000050032000089200070468800d008a80075
:100de00020c0b300d2e8b700000006009ac8bf00d8
:100df000e14f50000b003a0098c8bf007f406000f0
:100e000008003a00d0e8a80099c8bf00e34f50009e
:100e100003003a00100020006046880001003700ff
:100e2000cc28ef009a48e20063003a0098c8bf005f
:100e30007f406000e24f50005f003a009cc8bf0056
:100e40006f4060005c0032009cc8bf006f00600013
:100e5000e10f500058003c00414680000002200095
:100e6000808f500054003a00d0e8a8009c48e2006f
:100e7000090035009cc8bf006f0060000000400002
:100e8000218b2000e08178009cc8bf006f006000cb
:100e9000518a2000080037009cc8bf006f00600026
:100ea00000004000c18b2000e08178009cc8bf009a
:100eb0006f006000718a200060c178009c48e200e9
:100ec000050035009cc8bf006f00600000004000b6
:100ed000218b2000040037009cc8bf006f00600019
:100ee00000004000c18b200003b0780099c8bf000b
:100ef000e34f500012003a001300e0000b003d00e9
:100f00009c48e200040035009cc8bf006f006000f0
:100f1000518a2000030037009cc8bf006f006000aa
:100f2000718a2000010040001014a00013409000be
:100f300041c8b300014070009041980000000600d5
:100f40000218a30005003a000040280013006000ca
:100f500001002800810f500013003a009c48e20075
:100f6000040035009cc8bf006f006000518a20005b
:100f7000030037009cc8bf006f006000718a20002a
:100f8000010040001014a10013409000b047b200cf
:100f90000064a000904198002200200083007800a7
:100fa000500020003304370013409000b047b200d7
:100fb0000064a000904198000000060098c8bf009f
:100fc0000046b20033003a0099c8bf000080fb0021
:100fd00001002000eb0f5000e08f58002d003e0074
:100fe00000600100130037001300370029003700ac
:100ff00011003700270037000600370009003700ce
:101000002000370009003700070037000b003700c9
:1010100014003700d0e8a800800020004046880077
:1010200000000600f7fe370023ff3700708c200019
:10103000060037003fff37006cff37009cc8bf0039
:101040000080fb00a18b200001004000704688005a
:10105000d008a80010c0b300d2e8b700d0e8a800bc
:1010600000000600d0e8a8009cc8bf000080fb007c
:10107000a18b2000a28920001241780002f07800a4
:10108000000006000001eb008000eb0020002000c3
:10109000f8030700000006000000eb00a0468800ef
:1010a000b0468800008b200021c0b30090cf100014
:1010b00009003a0081c0b300b045800001487800c3
:1010c00001892000b04580001100980081ccb30058
:1010d000b0458000160037009ec8bf000080fb00ae
:1010e000f189200091407800c808dd008080700000
:1010f00090468000808f500007003100e189200079
:10110000914078008180fb009fc8bf004800dd004f
:1011100001007000904688005afe070001892000f7
:10112000e04580001100980081ccb300e0458000cc
:10113000114098000000060094a4a900d0e8ab007c
:1011400018003a00c248e20009003d0020c0b30088
:10115000b0e8b700d608e20001003a00ceff070071
:101160000000eb00004588001045880000000600e4
:1011700081c0b300b045800001487800818920001b
:10118000b045800011009800c1c8b300b045800090
:1011900011409800e8c05000e045800011409800e0
:1011a000000006009848e2000b003d0010c0b300ac
:1011b000b0e8b700d408e20001003a00b6ff07002b
:1011c0000000eb000045880010458800d808e200c8
:1011d00012003a0093fd370020c0b300b0e8b7001a
:1011e00081c0b300b04580000148780081892000ab
:1011f000b04580001100980041c8b300b0458000a0
:10120000114098000000eb00004588001045880060
:10121000d808e20001003a0082fd07000000060045
:10122000881f78008041eb0003007800b1e8b70028
:101230000004eb00c8468800a8468800b84688002d
:101240005845880003007800b0e8b700e145800009
:1012500011409000f2c7b300024060009040980037
:10126000e1458000114090000240600090409800ed
:10127000b14580001140900002406000904098000d
:101280008001fd00d0e8b7008001fd00984688008d
:101290008001fd00c2e8b700c3e8b700c4e8b700aa
:1012a0008001fd0045ff07000801780088007800f4
:1012b000300020006f0307009fff07004f047800f5
:1012c00000000600d0c2b300a4e8b700adc8bf005c
:1012d0000080fb00000178000220a1000200e00075
:1012e00018003a00c00fb200018020000100400049
:1012f000c0458800b045880010409000c043b2004f
:1013000041c3b300814f50000d003a008389200093
:10131000c14580001100900010f17900110090008b
:101320000000e800900098000201e800e80f51007a
:10133000f7ff3a00c045800013009800b8ff37005f
:10134000bcfd3700e80f510001003a00fafd07002c
:1013500000000600881f7800c808e20010003a006c
:101360000000eb00a024880060248800302588005d
:10137000402588008644a900f009200080248800c8
:1013800060248800010037009404a80094c4bf00c2
:101390000008a300fcff3200100020004046880037
:1013a00040468000e10f500009003a0094c4bf009d
:1013b0000068a30006003a008aa4ef008c24ef0026
:1013c0008c04a8008c84a8002000200040468800df
:1013d00080c4bf000048a3000600320082c4bf00e2
:1013e0000048a30003003200000120000024880010
:1013f000fafc070088c4bf000018a30055003a009b
:101400008ac4bf000008a300080032008cc4bf00db
:101410000008a30005003200a1fc070040002000e6
:101420004046880010002000502488008ac4bf0075
:101430000048a300060032008cc4bf000048a3008f
:1014400003003200eefc0700000120005024880059
:101450008ac4bf000028a3000f0032008cc4bf0064
:101460000028a30004003200120020008000eb00de
:1014700030072000ff0207004000200050248800b1
:10148000a4c8bf00030032000040e900a4e8b70090
:1014900001003a00e3fc07008a44e20005003d0039
:1014a0008cc4bf0001c8b3000140600001003200dd
:1014b000fafc07008ac4bf000018a3000a0032002b
:1014c0008cc4bf000018a3000700320012002000e7
:1014d0008000eb00f0ff2700e60207008ea4ef007b
:1014e000200020005024880040468000e30f500078
:1014f000180036008cc4bf000038a300150032006d
:1015000048c0b3008ac4bf000038a30011003200f5
:1015100090248000ade8b7000080fb004400de00ae
:10152000ace8b70081002000512488000004e000ee
:1015300002003a0063ff0700040037000001eb00df
:10154000d18a200020072000ca0207000844e900d1
:10155000ecff3a008ec0a9004f047800000006009e
:101560008081fb00038241000180fb0000004200fb
:101570004200dd0002802000020140001240900085
:101580000074a100104198000104e00003003a003b
:10159000208b200002327800030037008380410056
:1015a000c08b200082307800124090000064a000c0
:1015b0001041980000000600889fbe008a1f780036
:1015c00000447800014578008184fb000938a300bd
:1015d000020032008040eb00e1ff07000928a30071
:1015e0000300320011c0b30008407800dcff0700a0
:1015f0000880fb0000004000a14a20000af07800ab
:101600004f0578004f04be00000006000004e00013
:101610000c003a0081c0b300b0458000014878005a
:1016200081892000b045800011009800c1c8b30036
:10163000b045800011409800e8c05000e0458000af
:101640000a0037000080fb00000040008180fb00a2
:10165000010040004200dd00018020000100400048
:101660009040900042c8b30082c0700011409800c2
:10167000000006000104e000040032000080fb00ce
:1016800000004000c18b2000030037000080fb00f9
:1016900000004000218b2000608278000400e00000
:1016a00002003a0004007800000006001440900098
:1016b0000064a2001042980012029800034a7800c9
:1016c000144090000044b200104298001440900072
:1016d00081c8b300014070001042980004007800f7
:1016e000000006008040780094c4bf000058a300aa
:1016f0000e0032000181fb0002014100c08b20007e
:1017000000014100920178001300be000404200093
:101710000500200000006200010020008089be005a
:101720001200780010186a0010906a00000006008d
:1017300030ff2f00c422b600c022b600c082a8002d
:101740008000eb00914f8800814f8800120020003c
:10175000724f880090c2b300ece9b70000802a0005
:10176000404f8800ea29ef00020078009ee9b700a8
:1017700001007800e7e9b700a0a9ef00a2a9ef00f7
:1017800001007800a4e9b700000006002ca3ef00d8
:10179000c3fb0700e6ff37009a09e20002003a00a7
:1017a00000712200d04c8800d24c80000201e90078
:1017b000d24c880088c4bf000018a3001900320072
:1017c0000200e00058003a00c4c2bf000080fb00e5
:1017d0004200de000004a200614060004200dd0023
:1017e000412c2000914078000124a10080c07000ad
:1017f00001007800c4e2b700c4c2bf004200de00ae
:10180000610060004300dd00c12c200091407800a1
:101810000134a10080c0700001007800cce2b70064
:1018200000000600414680000100e00002003a008e
:10183000c442a9001d003700e18f500002003a00a9
:10184000c442a80007003700e28f500002003a00af
:10185000c442a80015003700e48f500003003a008e
:10186000c442a900cc62a80000000600f08f50001e
:1018700010003a000200e0002b003a00c4c2bf0092
:101880000080fb004200de000004a2006140600016
:101890004200dd00412c2000914078000124a1008d
:1018a00080c0700001007800c4e2b700cc62a900db
:1018b0000000060000022000808f50001a003a004d
:1018c0000200e00018003a00c4c2bf000080fb0024
:1018d0004200de000004a200614060004200dd0022
:1018e000412c2000914078000124a10080c07000ac
:1018f00001007800c4e2b700c4c2bf000080fb0052
:101900004200de000004a200614060004300dd00f0
:10191000c12c2000914078000134a10080c07000eb
:1019200001007800cce2b70000000600e6c9bf0065
:101930000080fb00010020004a09dd00c600de0037
:10194000810071004a00dd0022042400023b88006f
:101950000181fb00920188000081eb000208bb00be
:101960001000fc0050052000303b8800a00a200039
:10197000303b880061e7a800000000000000000084
:1019800001c8b30061c7bf0001406000fdff3a001d
:101990000000060030002400003b8800639a20000d
:1019a000044d8000154d8000160037000080fb00bc
:1019b000010020000000520081805a00910188003f
:1019c0001308bb00130190000288bb001000fc004c
:1019d00056052000363b8800a60a2000363b8800ca
:1019e00061e7a800000000000000000001c8b3008b
:1019f00061c7bf0001406000fdff3a00a4e9ed00af
:101a0000e4814100a4c9bf00e8ff3a0061c7a90012
:101a1000000006000400fa00e0bf9f00f1bf9f0035
:101a2000910180007fb89700900188006fb89700ff
:101a30009081ba001001ba00910188000200be0036
:101a40000080fa0000000600889fbe00e749e2001f
:101a500022003a00804f80000000e00003003200c6
:101a6000104090000004e0003c013500904f8000e1
:101a70000000e00003003200104090000004e0008d
:101a8000360135000000eb00a3952000a28d200058
:101a900001042000e27178000000e800810f50008e
:101aa000fcff3a00804178008040eb0010c0b3009a
:101ab000f0fe0700904f880010c0b300e7e9b700c0
:101ac000a09120000041eb00a19520000258780071
:101ad000810f500021013200fcff37005ac9bf00be
:101ae000e54f50006d00320006003e00e34f50000d
:101af0004900320059003e00e24f500017013a0001
:101b000006003700e74f5000b8003200b30039003c
:101b1000e84f500011013a000a01370021c0b3001c
:101b2000010078001ae9b70080c3b3001be9b700d1
:101b3000010078001ce9b70010c0b3001de9b70030
:101b40008041eb00030078001ee9b70040c1b300fc
:101b50001fe9b7008001fd0020e9b70021e9b700c7
:101b60008001fd0000c02e00f1ff2f00444f8000d7
:101b7000554f8000040040008580480022e9b700ee
:101b80004801de000200780023e9b7000100780078
:101b900024e9b7004808de0025e9b70080c0eb0063
:101ba0000100780026e9b7009e49e20013003a00e0
:101bb00030c0b30026e9b70080cfb30027e9b700f3
:101bc000b0cab30028e9b7008001fd0029e9b700d9
:101bd0002ae9b7008001fd0080c0b3002be9b700ff
:101be0008001fd002ce9b7002de9b7002ee9b70010
:101bf0008001fd00010078002fe9b700804f8000d0
:101c00000000e000c7003200104090000004e00037
:101c1000d2003500c30037005b49e20007003a00fc
:101c2000a0c2b300ece9b70085bf2a00454f880089
:101c3000ea29ef009e69ef00c000370090c2b300b0
:101c4000ece9b70000802a00404f8800ea29ef0045
:101c500010c0b3009ee9b700b800370050c0b30011
:101c6000e6e9b7000300370030ff0700b9fd0700c1
:101c7000e669ec00619e2000914078008180fb00c5
:101c8000ecc9bf000080fb000000e800808f50001e
:101c9000f5ff350061c7a900a8003700004d80009e
:101ca000114d8000e10f4000e08f48000e003a0027
:101cb000b1952000914078008180fb005cc9bf0095
:101cc0004800dd0001017000d195200091407800ae
:101cd0008180fb005ec9bf004800dd00810170000b
:101ce000024d8800134d8800b19520009140780086
:101cf0008180fb005cc9bf004800dd00010170006d
:101d0000d1952000914078008180fb005ec9bf0022
:101d10004800dd00810170000004eb00004d8000f0
:101d2000114d8000820f5000838f58002300320035
:101d300082003700449a2000144278008481fb001e
:101d4000838141008180fb0080032000010050005e
:101d500022002000110009000200d8008580fb004d
:101d600001004000000040002196200001004000da
:101d70009080fb00104090004800dd0001007000e2
:101d8000619a200080b178000442e80004007800e5
:101d9000a4e9b700004d8000114d800061004000b3
:101da000e0804800004d8800114d8800fc4f520033
:101db00001003a00f7fe07000804e80088427800b6
:101dc000f1952000914078000180fb000000d100d7
:101dd000804f5400d7ff390058003700edfe070050
:101de000a0a9ef00a2a9ef0054003700804f8000a7
:101df0000000e00003003200104090000004e0000a
:101e00005600350070c0b3001ae9b700b195200044
:101e1000914078008180fb005cc9bf004800dd0074
:101e200001017000d1952000914078008180fb0075
:101e30005ec9bf004800dd0081017000020078002b
:101e40001be9b7004810de001ce9b700030078006a
:101e50001de9b7004818de001ee9b7005fc9bf00e2
:101e60001fe9b7008044eb0029003700b39520003c
:101e7000934178008381fb00c295200012417800d5
:101e80004811dd0003007100d395200093417800d4
:101e90008381fb00e2952000124178004811dd00ab
:101ea000830071000981fb00030020000000410055
:101eb00081804900d7fe07008981fb00f295200050
:101ec000124178000281fb000201d10082815100a1
:101ed000838141000404200003024200a8912000f5
:101ee00008024200f50f2000054a60004801de00ac
:101ef00012429800858360002304b000888141006d
:101f000085c963004838de009041980089c4e80024
:101f10005fc9bf000080fb000000d10080cf5400eb
:101f2000d2ff390003c4b300a291200011c0b30056
:101f300001407800cffd0700804f8800e769ef007f
:101f4000060037009424ef000080eb000000000042
:101f50000000e900fdff3a000000fe004f04be0053
:101f600000000600ee09e200010032000afe070050
:101f700040468000ff0f50000400360088c4bf00b8
:101f80000018a30001003a00affe070000000600a1
:101f9000c082a800c2c2bf000048a30005003200f2
:101fa000003a80003008b200020032000014040041
:101fb00000000000f5fd0700c422ef00e5fc07006b
:101fc000e8ff0700fdff37000000060000000600e4
:101fd00000000600000006002f0037000000060089
:101fe000d1c1b30010c0b30073fd070003c4b30038
:101ff000a28d20008040eb0010c0b3009dfd0700c3
:10200000904f88000000060060468000e10f5000fd
:1020100017003a0050468000e10f500014003a00cb
:102020008824a9008000eb005146880000e12000d0
:10203000e04c88000100780001e120000000e80089
:10204000810f5000fdff3a009444a80080702000ea
:10205000e04c88000000eb00817020000000e800e8
:10206000810f5000fdff3a009c29ef009444a90025
:1020700000000600e10f500003003200e30f5000a3
:1020800004003a0002003700d5ff070001003700c6
:10209000d1ff07001000050098c8bf007f40600016
:1020a000e14f500047003a009c48e20045003a00ea
:1020b00099c8bf00e64f50001b003a00b1892000cc
:1020c000914078007b40400080cf500004003200f7
:1020d0000040e80080cf500013003a0008003700ad
:1020e000708c200011c0b30090cf10000e003a0099
:1020f00060322800704688009000200007003700fa
:10210000708c200011c0b30090cf100006003a0080
:102110008029280070468800d00120009046880061
:1021200000ccb300d0e8b70098c8bf000046b200aa
:1021300001c2b300814f500022003a0099c8bf008d
:10214000e34f50001400320003003e00e24f500005
:102150001c003a0005003700ea4f50000900320029
:10216000eb4f500017003a0012003700509f20003c
:1021700070468800100020009046880010ccb30004
:102180000a00370000c8b300d0e8b7009bc8bf0002
:10219000f5e9b70000000600409f20007046880067
:1021a000100020009046880010c8b300d0e8b700a7
:1021b0000000060000c8b300d0e8b7009ac8bf000e
:0821c000f4e9b700000006007d
:020000040000fa
:1021c800ee09000006000000020000000100000007
:1021d800000000009a090000540000000000000000
:1021e800da080000c000000000000000100800002d
:1021f800ca000000000000000008000010000000f5
:1022080000000000f40900000200000000000000c7
:0422180000000000c2
:020000040000fa
:04221c000000fe00c0
:00000001FF
